:020000040800F2
:10000000000002207D3C0008650800086708000821
:10001000690800086B0800086D080008000000006F
:10002000000000000000000000000000B1390008DE
:100030006F08000800000000513A0008B53A0008B7
:10004000CD3C0008CD3C0008CD3C0008CD3C00086C
:10005000CD3C0008CD3C0008710800087B08000872
:10006000CD3C0008CD3C0008CD3C0008CD3C00084C
:10007000CD3C0008CD3C0008CD3C0008CD3C00083C
:10008000CD3C0008CD3C0008CD3C0008CD3C00082C
:10009000CD3C0008CD3C0008CD3C0008CD3C00081C
:1000A000CD3C000885080008CD3C0008CD3C000888
:1000B000CD3C0008CD3C0008CD3C0008CD3C0008FC
:1000C000CD3C0008CD3C0008CD3C0008CD3C0008EC
:1000D000CD3C0008CD3C0008CD3C0008CD3C0008DC
:1000E000CD3C0008CD3C0008CD3C0008CD3C0008CC
:1000F000CD3C0008CD3C0008CD3C0008CD3C0008BC
:10010000CD3C0008CD3C0008CD3C0008CD3C0008AB
:10011000CD3C0008CD3C0008CD3C0008CD3C00089B
:10012000CD3C0008CD3C0008CD3C0008CD3C00088B
:10013000CD3C0008CD3C0008CD3C0008CD3C00087B
:10014000CD3C0008CD3C0008CD3C0008CD3C00086B
:10015000CD3C0008CD3C0008CD3C0008CD3C00085B
:10016000CD3C0008CD3C0008CD3C0008CD3C00084B
:10017000CD3C0008CD3C0008CD3C0008000000004C
:08018000CD3C0008CD3C000855
:1001900010B5054C237833B9044B13B10448AFF3C1
:1001A00000800123237010BD1C000020000000000F
:1001B000683D000808B5034B1BB103490348AFF382
:1001C000008008BD0000000020000020683D0008FD
:1001D000034613F8012B002AFBD1181A0138704787
:1001E00053B94AB9002908BF00281CBF4FF0FF319E
:1001F0004FF0FF3000F088B9ADF1080C6DE904CE86
:1002000000F006F8DDF804E0DDE9022304B07047F1
:100210002DE9F047089D0F4604468C46002B48D137
:100220008A42164661D9B2FA82F34BB1C3F1200279
:1002300001FA03FC20FA02F29E4042EA0C0C9C40B8
:100240004FEA164EB7B2BCFBFEF1220C0EFB11CCEE
:1002500042EA0C4201FB07F0904209D9B21801F1C1
:10026000FF3C80F0EE80904240F2EB800239324455
:10027000121AA4B2B2FBFEF00EFB102244EA0244B2
:1002800000FB07F7A74209D9341900F1FF3280F0CB
:10029000DA80A74240F2D7803444023840EA014075
:1002A000E41B00211DB1DC400023C5E90043BDE88B
:1002B000F0878B4206D90DB1C5E90001002108463F
:1002C000BDE8F087B3FA83F1002948D1BB4202D3DD
:1002D000824200F20781841A67EB030201209446F0
:1002E000002DE4D0C5E9004CE1E7002A00F092803F
:1002F000B2FA82F3002B40F0A8808A1A4FEA164E19
:100300001FFA86FC0121200CB2FBFEF70EFB172220
:1003100040EA02420CFB07F0904207D9B21807F1FD
:10032000FF3802D2904200F2E2804746121AA4B28D
:10033000B2FBFEF00EFB102244EA02440CFB00FC70
:10034000A44507D9341900F1FF3202D2A44500F2C6
:10035000CB801046A4EB0C0440EA0740A2E7C1F1B1
:1003600020068B4022FA06FC4CEA030C07FA01F443
:1003700020FA06F3F7404FEA1C49234300FA01F83C
:100380001FFA8CFEB7FBF9F01C0C09FB107744EA4E
:10039000074400FB0EF7A74202FA01F20AD91CEB50
:1003A000040400F1FF3A80F09B80A74240F298805D
:1003B00002386444E41B9FB2B4FBF9F309FB134415
:1003C00047EA044403FB0EFEA64509D91CEB0404CE
:1003D00003F1FF3780F08280A6457FD9023B644459
:1003E00043EA0040A4EB0E04A0FB02E7BC427346C4
:1003F000B94663D360D05DB1B8EB030264EB090486
:1004000004FA06F622FA01F31E43CC40C5E9006463
:1004100000214CE76208480842EAC1710B0C43EA2C
:1004200000438AB242EA0342B3FBF6F1E407B44662
:100430003746B6461F23B0FBF6F0D21B41EA004117
:1004400061E7614614E7104628E7C3F1200120FA6E
:1004500001F29E4027FA01F19F403A434FEA164EBF
:100460001FFA86FCB1FBFEF70EFB1710110C41EAD8
:10047000004107FB0CF8884504FA03F43AD97118D7
:1004800007F1FF3001D288451FD8A1EB0801B1FB6D
:10049000FEF808FB0CF70EFB181192B242EA01427B
:1004A000BA422FD2B21808F1FF31C6D2BA42C4D232
:1004B000A8F102013244C0E7F0459CD2BEEB020332
:1004C00067EB0C070138B94695E7A6EB08084144ED
:1004D000B81EB1FBFEF808FB0CF7DCE73B467FE7F4
:1004E000504667E70846FBE63444023832E7023FED
:1004F00032441BE7A1EB08013846B1FBFEF808FBCC
:100500000CF7C8E7414698E7704700BF08B5026896
:10051000034B9A4200D008BD01F0DAF8FBE700BFB8
:100520000000014072B6FEE710B594B008AC30226E
:100530000021204603F0CBFB002303930493059393
:10054000069307930193184A116C41F0805111648E
:10055000126C02F080520192019A0293134A1168C0
:1005600041F480411160126802F480420292029AC2
:100570000222089201220B9210220C920E93204626
:1005800000F0D6FB60B90F2303930021049105917D
:100590000691079103A800F01BFE18B914B010BD16
:1005A000FFF7C0FFFFF7BEFF0038024000700040B9
:1005B00008B501F073F8FFF7B7FF00F009F800F095
:1005C0008BF800F0E1F801F03FFA02F04DFFFEE792
:1005D0002DE9F0418AB005AD0024059406940794F6
:1005E000089409940094384B1A6B42F080021A6305
:1005F0001A6B02F080020092009A01941A6B42F08A
:1006000001021A631A6B02F001020192019A02942C
:100610001A6B42F004021A631A6B02F0040202928F
:10062000029A03941A6B42F002021A631A6B02F0E8
:1006300002020392039A04941A6B42F008021A63AE
:100640001B6B03F008030493049BDFF888802246A9
:100650001021404600F0A6FF1C4E224630213046B5
:1006600000F0A0FF10230593012706970794089434
:100670002946404600F0A0FE3023059306970794D4
:1006800008942946304600F097FE032305934FF463
:10069000881306930223079329460D4800F08CFE29
:1006A00022460621084600F0E5FF062000F0F2FF92
:1006B00022460621072000F0DDFF072000F0EAFFB8
:1006C0000AB0BDE8F08100BF0038024000080240D7
:1006D000000402400000024008B50E480E4B0360C3
:1006E0004FF48273436000238360C36003614361FE
:1006F0004FF4007282612022C2610362436283620E
:100700000A23C36200F08CF900B908BDFFF70AFFA5
:10071000FBE700BF380000200030014000B589B081
:100720000023039304930593069307930268144BE5
:100730009A4201D009B000BD0021019103F5843334
:100740005A6C42F480525A645A6C02F480520192FC
:10075000019A02911A6B42F001021A631B6B03F0BB
:1007600001030293029BE0230393022304930323D8
:1007700006930523079303A9024800F01DFED9E75D
:10078000003001400000024008B50A480A4B0360EF
:100790004FF4E133436000238360C36003610C22A4
:1007A00042618361C36101F09EF800B908BDFFF7A3
:1007B000B9FEFBE790000020005000402DE9F04119
:1007C00088B000230393049305930693079302686C
:1007D000214B9A4202D008B0BDE8F0810024009479
:1007E00003F5F4331A6C42F480121A641A6C02F4A2
:1007F00080120092009A01941A6B42F004021A636C
:100800001A6B02F004020192019A02941A6B42F0F0
:1008100008021A631B6B03F008030293029B4FF458
:10082000805303934FF00208CDF8108003270697FA
:100830000826079603AD2946084800F0BDFD0423AD
:100840000393CDF81080059406970796294604482F
:1008500000F0B2FDBFE700BF0050004000080240BA
:10086000000C0240FEE7FEE7FEE7FEE7FEE770470A
:1008700008B5012000F09EFE08BD08B5022000F07A
:1008800099FE08BD08B5024801F058FA08BD00BF3E
:100890005805002000B583B0002200920D4B596C22
:1008A00041F480415964596C01F4804100910099F0
:1008B0000192196C41F0805119641B6C03F0805354
:1008C0000193019B0F216FF0010000F0D3FE03B0F4
:1008D00000BD00BF003802402DE9F04782B0054658
:1008E000884617461E4600F0FFFE0A9B1B1A03EBC4
:1008F000060900F0F9FE8246284B1B68C3F3CB3390
:1009000009FB03F301932B689C6838EA04040CBFCD
:1009100001230023BB423DD0B6F1FF3FF3D000F0EE
:10092000E3FEA0EB0A00484503D2019B73BB994646
:10093000E9E72A68536823F0E00353606B68B3F576
:10094000827F0BD0AB6AB3F5005F14D0012385F82A
:100950005130002385F8503003201CE0AB68B3F51C
:10096000004F02D0B3F5806FECD12A68136823F0F2
:1009700040031360E6E72A68136823F4005313600A
:100980002A68136843F400531360DFE7019B013BBF
:100990000193B8E7002002B0BDE8F087080000200E
:1009A00070B584B004460D46164600920B460122EF
:1009B0000221FFF791FFD0B9174B1B68174AA2FB22
:1009C00003235B0D4FF47A7202FB03F30393636816
:1009D000B3F5827F11D0039B3BB1039B013B039393
:1009E00023689B6813F0800FF5D104B070BD636D70
:1009F00043F0200363650320F7E700962B460022AF
:100A000080212046FFF768FF0028EED0636D43F099
:100A1000200363650320E8E708000020819F5E163D
:100A200000285AD010B50446436A33B94368B3F579
:100A3000827F05D00023C36102E00023036143618C
:100A40000023A36294F85130002B40D0022384F895
:100A500051302268136823F040031360636803F485
:100A60008273A26802F404421343E26802F4006253
:100A70001343226902F002021343626902F0010289
:100A80001343A26902F400721343E26902F03802D0
:100A90001343226A02F080021343A26A02F4005256
:100AA000216813430B60638B03F00403626A02F056
:100AB0001002216813434B602268D36923F400635A
:100AC000D36100206065012384F8513010BD84F8A3
:100AD00050302046FFF722FEB8E7012070472DE98D
:100AE000F04383B00446884691461F460A9D00F0B5
:100AF000FBFD064694F851306268012B0BD0D9B249
:100B0000B2F5827F40F00481A368002B40F004819D
:100B1000042940F00381B8F1000F00F00181B9F120
:100B2000000F00F0FF80002F00F0FE8094F850309E
:100B3000012B00F0FB80012384F8503094F85130F1
:100B4000042B02D0052384F8513000236365C4F8D8
:100B50003890E787A787C4F83080E786A7862364A4
:100B6000636423681A6812F0400F03D11A6842F0D8
:100B700040021A60E368B3F5006F11D063680BB1EF
:100B8000012F0BD1226B236812781A73236B013368
:100B90002363E38E9BB2013B9BB2E386012771E0A6
:100BA00063680BB1012F0BD1226B23681288DA60C6
:100BB000236B02332363E38E9BB2013B9BB2E3863C
:100BC00001271BE023689A6812F0010F0ED0E28F14
:100BD00092B25AB1DA68A36B1A80A36B0233A36393
:100BE000E38F9BB2013B9BB2E387012700F07CFDC2
:100BF000801BA84202D3B5F1FF3F1ED1E38E9BB20A
:100C00001BB9E38F9BB2002B62D023689A6812F065
:100C1000020FD7D0E28E92B2002AD3D0002FD1D0CB
:100C2000226B1288DA60236B02332363E38E9BB25C
:100C3000013B9BB2E3860027C4E7012384F85130CF
:100C4000002384F85030032063E023689A6812F090
:100C5000010F0ED0E28F92B25AB1DA68A36B1A700C
:100C6000A36B0133A363E38F9BB2013B9BB2E3878A
:100C7000012700F039FD831BAB4202D3B5F1FF3FE2
:100C80001ED1EDB1E38E9BB213B9E38F9BB2FBB1E2
:100C900023689A6812F0020FD7D0E28E92B2002A2F
:100CA000D3D0002FD1D0226B12781A73236B01336B
:100CB0002363E38E9BB2013B9BB2E3860027C4E72C
:100CC000012384F85130002384F85030032020E0C1
:100CD000324629462046FFF763FE90B9A36833B930
:100CE00001932368DA6801929B680193019B0123B9
:100CF00084F85130002384F85030636D4BB10120EB
:100D000007E020236365002384F85030012000E0D1
:100D1000022003B0BDE8F0830220FAE70220F8E7E2
:100D20000120F6E70120F4E70120F2E70220F0E7D6
:100D3000002800F0E08170B582B00446036813F02B
:100D4000010F3BD09F4B9B6803F00C03042B2CD06E
:100D50009C4B9B6803F00C03082B21D06368B3F510
:100D6000803F4FD0B3F5A02F52D0964B1A6822F493
:100D700080321A601A6822F480221A606368002B9D
:100D800050D000F0B1FC05468E4B1B6813F4003FB9
:100D900014D100F0A9FC401B6428F5D90320B1E16F
:100DA000884B5B6813F4800FD8D0864B1B6813F414
:100DB000003F03D06368002B00F09F81236813F08D
:100DC000020F54D07F4B9B6813F00C0F3ED07D4B2D
:100DD0009B6803F00C03082B33D0E368002B68D02A
:100DE000794B01221A6000F07FFC0546754B1B68A9
:100DF00013F0020F54D100F077FC401B0228F5D904
:100E000003207FE16F4A136843F480331360B5E732
:100E10006C4B1A6842F480221A601A6842F48032DD
:100E20001A60ABE700F060FC0546664B1B6813F4E4
:100E3000003FC3D000F058FC401B6428F5D90320C4
:100E400060E1604B5B6813F4800FC6D15D4B1B689B
:100E500013F0020F03D0E368012B40F05081594A90
:100E6000136823F0F803216943EAC1031360236880
:100E700013F0080F42D063696BB3534B0122C3F8E0
:100E8000802E00F031FC05464E4B5B6F13F0020FD5
:100E900034D100F029FC401B0228F5D9032031E1B0
:100EA000484A136823F0F803216943EAC103136039
:100EB000DDE7454B00221A6000F016FC0546414B69
:100EC0001B6813F0020FD2D000F00EFC401B02286A
:100ED000F5D9032016E13C4B0022C3F8802E00F028
:100EE00003FC0546374B5B6F13F0020F06D000F092
:100EF000FBFB401B0228F5D9032003E1236813F014
:100F0000040F77D02F4B1B6C13F0805F33D100237D
:100F100001932C4B1A6C42F080521A641B6C03F044
:100F200080530193019B0125284B1B6813F4807F9C
:100F300023D0A368012B34D0052B38D0214B1A6F56
:100F400022F001021A671A6F22F004021A67A368DE
:100F5000002B3DD000F0C8FB06461A4B1B6F13F068
:100F6000020F46D100F0C0FB801B41F2883398424B
:100F7000F3D90320C6E00025D6E7144A136843F4EA
:100F80008073136000F0B0FB0646104B1B6813F42F
:100F9000807FCED100F0A8FB801B0228F5D903206A
:100FA000B0E0084A136F43F001031367CFE7054B26
:100FB0001A6F42F004021A671A6F42F001021A67B0
:100FC000C5E700BF00380240000047420070004003
:100FD00000F08AFB0646524B1B6F13F0020F08D03D
:100FE00000F082FB801B41F288339842F3D9032042
:100FF00088E0EDB9A369002B00F08380484A92682D
:1010000002F00C02082A51D0022B17D0454B0022C7
:101010001A6600F069FB0446414B1B6813F0007F21
:1010200042D000F061FB001B0228F5D9032069E0E3
:101030003B4A136C23F080531364DBE7394B0022E7
:101040001A6600F051FB0546354B1B6813F0007F14
:1010500006D000F049FB401B0228F5D9032051E0DF
:10106000E369226A1343626A43EA8213A26A52085E
:10107000013A43EA0243E26A43EA0263284A5360C0
:10108000284B01221A6600F02FFB0446244B1B68F4
:1010900013F0007F06D100F027FB001B0228F5D9D2
:1010A00003202FE000202DE000202BE0012B2BD08F
:1010B0001B4B5B6803F48001E269914226D103F087
:1010C0003F02216A8A4223D1616A47F6C0721A4000
:1010D000B2EB811F1ED103F44031A26A5208013ADB
:1010E000B1EB024F18D103F07063E26AB3EB026F09
:1010F00014D1002006E001207047012002E0012009
:1011000000E0002002B070BD0120FBE70120F9E7FC
:101110000120F7E70120F5E70120F3E70120F1E7DF
:10112000003802400000474208B5264B9B6803F098
:101130000C03042B41D0082B41D1224B5A6802F0FA
:101140003F025B6813F4800F12D01E4B5968C1F345
:1011500088111D480023A1FB0001FFF741F8194B3E
:101160005B68C3F3014301335B00B0FBF3F008BDE0
:10117000144B5868C0F388104FEA401CBCEB000CBD
:101180006EEB0E0E4FEA8E1343EA9C634FEA8C110E
:10119000B1EB0C0163EB0E03DB0043EA5173C900B2
:1011A00011EB000C43F10003990200234FEA8C205D
:1011B00041EA9C51FFF714F8D1E70348D7E7034809
:1011C000D5E700BF0038024040787D010024F400DC
:1011D000002800F09B8070B50D4604464F4B1B68FD
:1011E00003F007038B4208D2CBB24C4A137013684A
:1011F00003F007038B4240F08B80236813F0020F4B
:1012000017D013F0040F04D0454A936843F4E05319
:101210009360236813F0080F04D0414A936843F4A5
:10122000604393603E4A936823F0F003A1680B4348
:101230009360236813F0010F32D06368012B21D033
:101240009A1E012A25D9364A126812F0020F61D07F
:1012500033498A6822F0030213438B6000F044FA9A
:1012600006462F4B9B6803F00C036268B3EB820FBA
:1012700016D000F039FA801B41F288339842F0D939
:10128000032042E0264A126812F4003FE0D1012018
:101290003BE0234A126812F0007FD9D1012034E0EC
:1012A0001E4B1B6803F00703AB4207D9EAB21B4B86
:1012B0001A701B6803F00703AB422DD1236813F0AB
:1012C000040F06D0164A936823F4E053E1680B43F9
:1012D0009360236813F0080F07D0114A936823F432
:1012E0006043216943EAC1039360FFF71DFF0C4B84
:1012F0009B68C3F303130B4AD35CD8400A4B1860B6
:101300000A4B186800F088FC002070BD012070476F
:101310000120FAE70120F8E70120F6E7003C02404F
:1013200000380240DC3D00080800002004000020D6
:10133000014B1868704700BF0800002008B5FFF790
:10134000F7FF044B9B68C3F38223034AD35CD84066
:1013500008BD00BF00380240D43D000808B5FFF7C3
:10136000E7FF044B9B68C3F34233034AD35CD84086
:1013700008BD00BF00380240D43D00080F230360C1
:101380000B4B9A6802F0030242609A6802F0F00286
:1013900082609A6802F4E052C2609B68DB0803F442
:1013A000E0530361034B1B6803F007030B607047B6
:1013B00000380240003C024000230F2B00F2E9807D
:1013C00070B582B065E085684FEA430E032404FAE5
:1013D0000EF425EA0405CC6804FA0EF42C4384606C
:1013E000446824EA02044A68C2F300129A40224385
:1013F00042605CE0DC08083450F8242003F0070564
:10140000AD004FF00F0E0EFA05FE22EA0E0E0A692D
:10141000AA4042EA0E0240F824205CE0072200E0E5
:10142000002202FA0EF22A4302345A4D45F82420D3
:10143000594A94686FEA0C0224EA0C054E6816F4C7
:10144000801F01D04CEA0405534CA560E46802EA11
:1014500004054E6816F4001F01D04CEA04054E4CFA
:10146000E560646802EA04054E6816F4003F01D0A6
:101470004CEA0405484C6560246822404D6815F428
:10148000803F01D04CEA0402434C226001330F2B11
:101490007DD801229A400C6804EA020C32EA040466
:1014A000F4D14C6804F00304013C012C8BD94A6848
:1014B00002F00302032A09D0C4685D000322AA4097
:1014C00024EA02048A68AA402243C2604A6802F001
:1014D0000302022A8ED004684FEA430E032202FA66
:1014E0000EF224EA02044A6802F0030202FA0EF243
:1014F000224302604A6812F4403FC7D000220192A2
:10150000264A546C44F480445464526C02F4804281
:101510000192019A9C08A51C1E4A52F8255003F01E
:10152000030E4FEA8E0E0F2202FA0EF225EA020592
:101530001B4A90423FF474AF02F5806290421AD089
:1015400002F58062904218D002F58062904216D077
:1015500002F58062904214D002F58062904212D06F
:1015600002F58062904210D002F5806290423FF412
:1015700055AF082255E7012253E7022251E7032223
:101580004FE704224DE705224BE7062249E702B068
:1015900070BD704700380140003C014000380240F7
:1015A000000002400AB181617047090481617047FF
:1015B0007047000008B5054B5B69034200D108BDC8
:1015C000024B5861FFF7F4FFF9E700BF003C014010
:1015D000002807DB00F01F02400901239340024A64
:1015E00042F82030704700BF00E100E0002808DB2F
:1015F0000901C9B200F1604000F5614080F80013B4
:10160000704700F00F000901C9B2014B195470472F
:1016100014ED00E000B500F00700C0F1070CBCF1CC
:10162000040F28BF4FF0040C031D062B0ED9C31E58
:101630004FF0FF3E0EFA0CF021EA000199400EFA3D
:1016400003FE22EA0E0241EA020000BD0023EFE79A
:10165000074AD36823F4E0631B041B0C000200F468
:10166000E060034343F0BF6343F40033D36070474B
:1016700000ED00E010B50446054BD868C0F3022029
:10168000FFF7C8FF01462046FFF7B0FF10BD00BFBF
:1016900000ED00E008B5FFF79BFF08BD08B50B4B58
:1016A0001A6842F400721A601A6842F480621A6082
:1016B0001A6842F480721A600320FFF7C9FF0F20F6
:1016C00000F0AAFAFFF7E6F8002008BD003C02404F
:1016D000034A1168034B1B780B441360704700BF2B
:1016E000D800002000000020014B1868704700BFA0
:1016F000D8000020026802F10C0353E8003F23F4F5
:1017000090730C3242E800310029F3D1026802F1F3
:10171000140353E8003F23F00103143242E8003180
:101720000029F3D1036B012B05D0202380F8423030
:10173000002303637047026802F10C0353E8003F83
:1017400023F010030C3242E800310029F3D1ECE71A
:1017500010B504460268136923F44053C1680B4373
:101760001361836802691A4343691A43C3691A43C0
:101770000168CB6823F4164323F00C031343CB60BA
:101780000268536923F4407381690B435361036812
:10179000314A934206D002F58062934202D0FFF7AD
:1017A000CDFD01E0FFF7DAFDE369B3F5004F29D085
:1017B0000021031849411B1841F10001C90041EA09
:1017C0005371DB00181863684FEA83024FEA937382
:1017D00041F10001FEF704FD204AA2FB0031490956
:1017E000642303FB11031B013233A2FB03235B09B8
:1017F00003F0F00202EB011203F00F03216813441F
:101800008B6010BD0023021843EB0301121841F155
:101810000001C90041EA5271D200101841F10001E3
:10182000626892185B41FEF7DBFC0C4AA2FB0031B8
:101830004909642303FB1103DB003233A2FB0323BA
:101840005B095A0002F4F87202EB011203F007037D
:10185000216813448B60D4E7001001401F85EB51D1
:101860002DE9F04383B005460E4617469946DDF84C
:1018700028802B681C6836EA04040CBF012400246D
:10188000BC4228D1B8F1FF3FF3D0FFF72DFFA0EB0A
:101890000900404523D8B8F1000F22D02B68DA6840
:1018A00012F0040FE5D0802EE3D0402EE1D01A686C
:1018B00012F0080FDDD0002401941A6801925B68D1
:1018C0000193019B2846FFF715FF08236B6485F8F9
:1018D0004040012000E0002003B0BDE8F083032079
:1018E000FAE70320F8E760B310B5044690F84130FA
:1018F00013B3242384F841302268D36823F40053BF
:10190000D3602046FFF724FF2268136923F4904335
:1019100013612268536923F02A0353612268D36854
:1019200043F40053D36000206064202384F84130E6
:1019300084F84230606310BD80F84030FEF73EFF0F
:10194000D7E7012070472DE9F04182B01E4690F89C
:101950004130202B56D104460D469046002955D0E3
:101960000AB901204FE000234364212380F841306D
:10197000FFF7BAFE0746A4F82480A4F82680A368DF
:10198000B3F5805F02D04FF0000814E023692BB359
:101990004FF000080FE0202384F84130032032E0AC
:1019A00038F8023B2268C3F308035360E28C92B21A
:1019B000013A92B2E284E38C9BB293B100963B462B
:1019C000002280212046FFF74BFF0028E3D1002DA5
:1019D000E6D015F8012B23685A60E7E7A8460025F2
:1019E000E9E700963B46002240212046FFF738FFFA
:1019F00018B9202384F8413005E0202384F84130D1
:101A0000032000E0022002B0BDE8F0810120FAE7E7
:101A1000034AD2F8883043F47003C2F88830704724
:101A200000ED00E008B5012001F056FDFBE70000E5
:101A3000034B0360034B0B604FF4807313607047DC
:101A4000DC040020DC00002030B59BB00025189598
:101A5000199518A801F047FD244B186016951795A5
:101A6000012116A801F0A7FD214B18604FF0FF31AE
:101A700001F0C5FD1F4C0DF13C0CA646BEE80F0061
:101A8000ACE80F009EE807008CE8070029460FA885
:101A900001F0EFFC184B18600DF1200C04F11C0E46
:101AA000BEE80F00ACE80F009EE807008CE80700D6
:101AB000294608A801F0DDFC104B18600DF1040E5A
:101AC00004F1380CBCE80F00AEE80F009CE80700FA
:101AD0008EE80700294601A801F0CBFC084B1860EE
:101AE00000F072FA074B18601BB030BD540500209F
:101AF00050050020803D00083005002048050020EA
:101B0000440500204C05002010B50446FEF760FB9C
:101B10004FF0FF3382B221460148FFF714FF10BD9A
:101B20009000002000B583B0194D4FF0FF312868B8
:101B300001F0E4FC174C002222606260A260E260C7
:101B4000154E10213046FFF72DFD4FF0FF33009367
:101B50000C23224611491248FEF7C1FF0122102131
:101B60003046FFF71FFD0F48FFF7CEFF01210E4B58
:101B7000186800F037FA286801F0F0FC0B4B186881
:101B800001F06CFD4FF47A7001F0A6FCCCE700BFC9
:101B90005405002034050020000002400C00002005
:101BA00038000020EC3D00084C05002050050020C6
:101BB00008B50DE01148FFF7A7FF1148FFF7A4FF94
:101BC0001048FFF7A1FF02210F4B186800F00AFA36
:101BD0004FF0FF310D4B186801F011FD05220C4943
:101BE000074802F07CF80028E4D00A48FFF78CFF91
:101BF0000421054B186800F0F5F9E9E7103E0008EC
:101C000034050020243E00084C050020500500202B
:101C1000083E0008283E000830B589B0054600247B
:101C200001941D4B5A6C42F001025A645B6C03F044
:101C300001030193019B02A903A8FFF79FFBFFF794
:101C40008DFB164AA2FB00239B0C013B1448154A4E
:101C5000026040F2E732C2604360046184608461E4
:101C600000F084F9044610B1204609B030BD0C489C
:101C700000F01EF804460028F6D11920FFF70AFDEF
:101C80000F2D01D90124EFE7002229461920FFF783
:101C9000F1FC054B1D60E7E70038024083DE1B4383
:101CA000580500200000014004000020704700009B
:101CB00090F83D30012B37D1022380F83D30026887
:101CC000D36843F00103D3600368194A934220D0DC
:101CD000B3F1804F1DD0A2F57C42934219D002F59A
:101CE0008062934215D002F58062934211D002F5D2
:101CF000784293420DD002F57052934209D0A2F57A
:101D00009432934205D01A6842F001021A60002012
:101D100070479A6802F00702062A07D01A6842F054
:101D200001021A60002070470120704700207047B0
:101D300000000140704770477047704770B5044617
:101D40000368DE681D6915F0020F10D016F0020F4F
:101D50000DD06FF002021A610123037703689B69BB
:101D600013F0030F5ED0FFF7E6FF0023237715F093
:101D7000040F12D016F0040F0FD023686FF0040286
:101D80001A610223237723689B6913F4407F4FD0A5
:101D90002046FFF7D0FF0023237715F0080F12D05D
:101DA00016F0080F0FD023686FF008021A610423A1
:101DB00023772368DB6913F0030F40D02046FFF739
:101DC000BAFF0023237715F0100F12D016F0100F72
:101DD0000FD023686FF010021A610823237723685D
:101DE000DB6913F4407F31D02046FFF7A4FF0023C6
:101DF000237715F0010F02D016F0010F2DD115F049
:101E0000800F02D016F0800F2FD115F0400F02D0B6
:101E100016F0400F31D115F0200F02D016F0200F30
:101E200033D170BDFFF786FF2046FFF785FF9CE7A3
:101E30002046FFF77FFF2046FFF77EFFABE72046F7
:101E4000FFF778FF2046FFF777FFBAE72046FFF756
:101E500071FF2046FFF770FFC9E723686FF00102AA
:101E60001A612046FEF752FBC9E723686FF0800233
:101E70001A61204600F0A7F8C7E723686FF0400218
:101E80001A612046FFF759FFC5E723686FF020026B
:101E90001A61204600F096F8C3E700000368324A52
:101EA000904212D0B0F1804F0FD0A2F57C42904208
:101EB0000BD002F58062904207D002F5806290421A
:101EC00003D002F57842904203D123F070034A68B0
:101ED0001343254A90422AD0B0F1804F27D0A2F573
:101EE0007C42904223D002F5806290421FD002F5DE
:101EF000806290421BD002F57842904217D002F5E2
:101F00007052904213D002F5806290420FD002F5D9
:101F1000806290420BD0A2F59832904207D002F531
:101F20008062904203D002F58062904203D123F494
:101F30004073CA68134323F080034A6913438A68D5
:101F4000C2620A688262084A904203D002F5806247
:101F5000904201D10A690263026842F00402026001
:101F600001224261036070470000014040B310B598
:101F7000044690F83D30F3B1022384F83D30214609
:101F800051F8040BFFF78AFF012384F8463084F8E8
:101F90003E3084F83F3084F8403084F8413084F893
:101FA000423084F8433084F8443084F8453084F873
:101FB0003D30002010BD80F83C30FFF777FEDBE7B6
:101FC000012070477047704738B51C2001F0D8FBDE
:101FD000044628B1002540F8045B00F04AF8257655
:101FE000204638BDF8B568B10D460446B1F1807F92
:101FF00011D34FF0500383F31188BFF36F8FBFF3FA
:102000004F8FFEE74FF0500383F31188BFF36F8FBC
:10201000BFF34F8FFEE700F10C0600F079FE206958
:1020200023682B43236000270AE0216832EA01017C
:1020300005D111E0216841F0007101F049F828460E
:10204000B0420ED04568036823F07F4213F0806FE2
:10205000EBD121681142F2D013F0807FEAD0174310
:10206000E8E7236823EA0703236000F0E5FE206821
:10207000F8BD00F1080343604FF0FF328260C36097
:1020800003610023036070470023036170474368C6
:102090004B609A688A6051609960086103680133F7
:1020A0000360704730B40D68B5F1FF3F11D000F107
:1020B00008031C465B681A68AA42FAD963684B6039
:1020C00099608C606160086103680133036030BC13
:1020D00070470469F2E70369416882688A60416871
:1020E00051605A68824206D0002202611A68013AA1
:1020F0001A601868704782685A60F5E70346406ABC
:1021000018B11B6B1868C0F10700704710B5044682
:1021100001F060FCA26BE36B9A4204D0002401F052
:102120007BFC204610BD0124F9E710B5044601F000
:1021300051FCA36B23B9012401F06EFC204610BDB5
:102140000024F9E770B504461546866B026C5AB94F
:1021500003681BB100200136A66370BD806801F0E2
:10216000B7F80023A360F6E76DB9406801F0EEFD13
:102170006368226C13446360A268934219D3236896
:1021800063602846E7E7C06801F0E0FDE368226C81
:1021900051429B1AE3602268934202D2A3680B4427
:1021A000E360022D01D00020D5E726B1013E0020DA
:1021B000D1E72846CFE70020CDE70346026C6AB19D
:1021C00010B50846D9681144D9609C68A14201D372
:1021D0001968D960D96801F0B9FD10BD704738B5EC
:1021E000054601F0F7FB95F8454064B201E0013C7B
:1021F00064B2002C0ADD6B6A43B105F1240000F0E3
:1022000021FF0028F3D000F0F7FFF0E7FF2385F867
:10221000453001F001FC01F0DDFB95F8444064B26B
:1022200001E0013C64B2002C0ADD2B6943B105F1E9
:10223000100000F007FF0028F3D000F0DDFFF0E70A
:10224000FF2385F8443001F0E7FB38BD38B5E0B135
:102250000D46044601F0BEFB2368E26B216C01FBD6
:102260000230A0600020A0636360013A02FB0133EA
:10227000E360FF2384F8443084F84530FDB92369D6
:1022800063B901F0C9FB012038BD4FF0500383F35F
:102290001188BFF36F8FBFF34F8FFEE704F110007B
:1022A00000F0D0FE0028ECD04FF0E0234FF0805239
:1022B000C3F8042DBFF34F8FBFF36F8FE1E704F135
:1022C0001000FFF7D6FE04F12400FFF7D2FED8E796
:1022D00010B5034602980C4631B90060C36304642C
:1022E0000121FFF7B3FF10BD0260F7E740B94FF0DF
:1022F000500383F31188BFF36F8FBFF34F8FFEE757
:1023000010B584B01C46844653B192B189B94FF0E0
:10231000500383F31188BFF36F8FBFF34F8FFEE736
:102320004FF0500383F31188BFF36F8FBFF34F8FCC
:10233000FEE76AB148230393039B482B13D04FF069
:10234000500383F31188BFF36F8FBFF34F8FFEE706
:102350000029EFD04FF0500383F31188BFF36F8F44
:10236000BFF34F8FFEE7039B012384F846300094B0
:102370009DF818306046FFF7ABFF204604B010BD53
:1023800040B94FF0500383F31188BFF36F8FBFF351
:102390004F8FFEE7F0B583B00D461446064601FBAD
:1023A00000F0483001F0ECF9074650B1002380F806
:1023B00046300090234600F1480229463046FFF798
:1023C00087FF384603B0F0BDF0B585B0019288B103
:1023D0000F461D460446B1B1022D20D1E36B012BFF
:1023E0001DD04FF0500383F31188BFF36F8FBFF3FD
:1023F0004F8FFEE74FF0500383F31188BFF36F8FC9
:10240000BFF34F8FFEE7036C002BE5D04FF0500376
:1024100083F31188BFF36F8FBFF34F8FFEE700F098
:10242000F1FE064658B9019B002B48D04FF05003EF
:1024300083F31188BFF36F8FBFF34F8FFEE7002642
:102440003DE02A4639462046FFF77CFE636A7BB9A9
:1024500048B14FF0E0234FF08052C3F8042DBFF392
:102460004F8FBFF36F8F01F0D7FA012005B0F0BD99
:1024700004F1240000F0E6FD0028F4D04FF0E02342
:102480004FF08052C3F8042DBFF34F8FBFF36F8F0F
:10249000E9E701F0C1FA0020E8E702A800F05CFEDD
:1024A000012619E0002384F8443021E0002384F859
:1024B000453023E02046FFF792FE00F0BDFC01F01E
:1024C00089FAA26BE36B9A42BBD3022DB9D0019B70
:1024D000002BDED0002EE0D001F09EFA00F018FCB8
:1024E00001F078FA94F8442052B2B2F1FF3FD9D00B
:1024F00094F8452052B2B2F1FF3FD7D001F08CFAE8
:1025000001A902A800F034FED8B92046FFF7FEFD6D
:102510000028CFD0019904F1100000F07BFD204687
:10252000FFF75DFE00F088FC0028C8D14FF0E023E3
:102530004FF08052C3F8042DBFF34F8FBFF36F8F5E
:10254000BDE72046FFF74BFE00F076FC00208DE74C
:1025500048B108B5002181600160C1600B460A46A0
:10256000FFF732FF08BD704710B502460021012079
:10257000FFF706FF0446FFF7EBFF204610BD10B53E
:1025800082B00B460090002211460120FFF7AEFEFC
:102590000446FFF7DDFF204602B010BD68B170B5FC
:1025A0000C460546036C8BB14FF0500383F3118842
:1025B000BFF36F8FBFF34F8FFEE74FF0500383F3EE
:1025C0001188BFF36F8FBFF34F8FFEE70368EBB146
:1025D00001F026FBEFF311864FF0500383F31188CF
:1025E000BFF36F8FBFF34F8FAA6BEB6B934226D96C
:1025F00095F845305BB20132AA63B3F1FF3F11D0C9
:1026000001335BB285F84530012019E08368002B67
:10261000DED04FF0500383F31188BFF36F8FBFF309
:102620004F8FFEE76B6A0BB9012009E005F124002A
:1026300000F008FD38B144B10120206000E0002026
:1026400086F3118870BD0120FAE70120F8E770B524
:1026500084B0019158B10446036C8BB14FF0500324
:1026600083F31188BFF36F8FBFF34F8FFEE74FF0F7
:10267000500383F31188BFF36F8FBFF34F8FFEE7D3
:1026800000F0C0FD054650B9019B5BB14FF050030F
:1026900083F31188BFF36F8FBFF34F8FFEE70026E0
:1026A000354655E0064653E0013BA36323683BB142
:1026B00023694BB901F0B0F90126304604B070BD72
:1026C00000F0B8FEA060F3E704F1100000F0BAFCDF
:1026D0000028EFD04FF0E0234FF08052C3F8042DD4
:1026E000BFF34F8FBFF36F8FE4E746B14FF0500356
:1026F00083F31188BFF36F8FBFF34F8FFEE701F0B5
:102700008BF9DAE702A800F027FD01252AE0002373
:1027100084F8443032E0002384F8453034E001F09E
:1027200059F9A06800F07EFD064601F075F93BE01E
:102730002046FFF754FD00F07FFB09E02046FFF73D
:102740004EFD00F079FB2046FFF7EFFC002842D158
:1027500001F040F9A36B002BA6D1019B002BC4D044
:10276000002DCFD001F058F900F0D2FA01F032F983
:1027700094F844305BB2B3F1FF3FC8D094F84530D1
:102780005BB2B3F1FF3FC6D001F046F901A902A840
:1027900000F0EEFC0028D1D12046FFF7C6FC00284F
:1027A000C6D02368002BBAD0019904F1240000F0B0
:1027B00031FC2046FFF713FD00F03EFB0028C7D197
:1027C0004FF0E0234FF08052C3F8042DBFF34F8F3A
:1027D000BFF36F8FBCE70EB900266EE701F0FAF881
:1027E0002046FFF78BFC0146A06800F0C9FD01F010
:1027F00013F9F1E72DE9F843B0B10D4690460446D0
:10280000D9B101F00DFAEFF311874FF0500383F3C4
:102810001188BFF36F8FBFF34F8FA66BCEB9002027
:1028200087F31188BDE8F8834FF0500383F31188D4
:10283000BFF36F8FBFF34F8FFEE7036C002BE0D029
:102840004FF0500383F31188BFF36F8FBFF34F8FA7
:10285000FEE794F844904FFA89F929462046FFF79D
:10286000ACFC731EA363B9F1FF3F06D009F101036D
:102870005BB284F844300120D2E723690BB9012010
:10288000CEE704F1100000F0DDFB30B1B8F1000F2D
:1028900005D00120C8F80000C2E70120C0E70120F0
:1028A000BEE70000084B1B681B6823B9074B4FF0BD
:1028B000FF321A607047044B1B68DB68DB685A689C
:1028C000024B1A60704700BF10060020A8050020C8
:1028D0002DE9F04707469846089DDDF824900A9CAC
:1028E000266B02F18042013A06EB820626F00706CB
:1028F000C1B308464FF0000CBCF10F0F09D810F817
:102900000C2004EB0C0383F8342012B10CF1010C01
:10291000F2E7002384F84330062D00D90625E5624E
:1029200065644FF0000AC4F848A0201DFFF7ACFB17
:1029300004F11800FFF7A8FB2461C5F10705A561A4
:102940006462C4F84CA084F850A042463946304630
:1029500001F014F82060B9F1000F01D0C9F800406F
:10296000BDE8F087002384F83430D5E738B500247B
:1029700007E004EB840293000E481844FFF779FB4C
:102980000134062CF5D90C4D2846FFF772FB0B4C91
:102990002046FFF76EFB0A48FFF76BFB0948FFF77D
:1029A00068FB0948FFF765FB084B1D60084B1C607E
:1029B00038BD00BF3C060020280600201406002079
:1029C000F8050020E4050020CC05002010060020BA
:1029D0000C06002010B5044600F0FCFF214A1368E5
:1029E00001331360204B1B685BB1204B1B686BB934
:1029F0001D4B1B68DA6AE36A9A4207D81A4B1C60BF
:102A000004E0194B1C601368012B28D0184A136886
:102A100001331360E06A01238340164A11680B43B7
:102A2000136000EB8000211D134B03EB8000FFF7C8
:102A30002EFB00F0F1FF0D4B1B687BB10A4B1B68AE
:102A4000DA6AE36A9A4209D24FF0E0234FF08052EB
:102A5000C3F8042DBFF34F8FBFF36F8F10BDFFF787
:102A600085FFD3E7C8050020C8060020BC0500206C
:102A7000AC050020C00500203C06002010B504462F
:102A800090F8513063B1012B11D0022B0ED04FF0D2
:102A9000500383F31188BFF36F8FBFF34F8FFEE7AF
:102AA000006B00F0EFFE204600F0ECFE10BD00F0E1
:102AB000E9FEFBE70F4B1B68D3B110B500F08AFFAE
:102AC0000D4BDB68DC68201DFFF705FB0B4A136824
:102AD000013B1360074A1368013B136000F09CFF41
:102AE0002046FFF7CBFF034B1B68002BE6D110BD40
:102AF000704700BFE0050020E4050020C805002065
:102B000008B5FFF7D7FF074B1B68012BF9D94FF02A
:102B1000E0234FF08052C3F8042DBFF34F8FBFF373
:102B20006F8FEEE73C06002070B504460D461D4B46
:102B30001E681D4B18680430FFF7CDFA48B91A4BD0
:102B40001B68DB6A01229A4018490B6823EA0203DA
:102B50000B60B4F1FF3F0DD03444134B1B685C6035
:102B6000A64210D9124B18680F4B19680431FFF7B1
:102B700099FA70BD002DEFD00B4B196804310D4848
:102B8000FFF785FAF5E70C4B1868074B1968043115
:102B9000FFF788FA094B1B68A342EAD9074B1C6070
:102BA000E7E700BFC4050020C8060020C0050020DC
:102BB0000C060020CC05002010060020A8050020EF
:102BC00030B587B00B9C7CB10C9DB5B154250495F4
:102BD000049D542D1AD04FF0500383F31188BFF396
:102BE0006F8FBFF34F8FFEE74FF0500383F31188D1
:102BF000BFF36F8FBFF34F8FFEE74FF0500383F3A8
:102C00001188BFF36F8FBFF34F8FFEE7049D0C9DBC
:102C10002C63022485F8514000240394029505ACEE
:102C200001940A9C0094FFF753FE0C98FFF7D2FE24
:102C3000059807B030BD2DE9F04385B007468846BA
:102C400014461E46900000F09BFD08B381465420B8
:102C500000F096FD0546A8B1C0F83090002380F83A
:102C60005130039302900D9B01930C9B00933346CC
:102C7000224641463846FFF72BFE2846FFF7AAFEBC
:102C8000012007E0484600F0FDFD4FF0FF3001E075
:102C90004FF0FF3005B0BDE8F083000010B588B0FC
:102CA00000240594069407AA06A905A8FEF7C0FE0D
:102CB000059B0293069B019300942346079A0E49B5
:102CC0000E48FFF77DFF0E4B186090B14FF0500398
:102CD00083F31188BFF36F8FBFF34F8F094B4FF012
:102CE000FF321A60084B01221A60084B1C6000F08A
:102CF0000BFF08B010BD00BF603E0008012B0008AC
:102D0000A4050020A8050020BC050020C405002063
:102D1000024A136801331360704700BFA00500200A
:102D2000F8B53A4B1B68002B69D1394B1D6801354A
:102D30001D60C5B9374B1B681B6843B14FF050038A
:102D400083F31188BFF36F8FBFF34F8FFEE7314AD4
:102D50001168314B186810601960304A13680133EC
:102D60001360FFF79FFD2E4B1B68AB423DD9002738
:102D70002C4B1B68DB6A03EB83039A002A4B9B589E
:102D8000012B00D90127294B1B68002B3CD00127C0
:102D90003AE001271F4B1B681B6843B31D4B1B68A0
:102DA000DB68DC6863689D4226D3261D3046FFF74A
:102DB00092F9A36A1BB104F11800FFF78CF9E36ADA
:102DC00001229A401A49086802430A6003EB830310
:102DD0009A00314614481044FFF759F9E26A114B42
:102DE0001B68DB6A9A42D4D2D4E70027D2E70C4BA7
:102DF0004FF0FF321A60BBE7094A1360B8E70D4A8B
:102E000013680133136000273846F8BDA005002081
:102E1000C4050020100600200C060020B00500208C
:102E2000A8050020C80600203C060020B4050020AC
:102E3000C0050020B805002038B5354B1B6843B9E4
:102E40004FF0500383F31188BFF36F8FBFF34F8FA1
:102E5000FEE700F0BFFD2E4B1A68013A1A601B68AE
:102E6000002B4FD12B4B1B680BB900244BE00024E7
:102E7000294B1B681BB3284BDB68DC6804F1180086
:102E8000FFF729F9251D2846FFF725F9E06A0123F8
:102E90008340224A11680B43136000EB80002946EF
:102EA0001F4B03EB8000FFF7F2F8E26A1D4B1B6833
:102EB000DB6A9A42DCD31C4B01221A60D8E70CB1C2
:102EC000FFF7F0FC194B1C6884B9174B1C68D4B190
:102ED0004FF0E0234FF08052C3F8042DBFF34F8F23
:102EE000BFF36F8F01240EE0013C07D0FFF718FFFE
:102EF0000028F9D00C4B01221A60F5E70B4B002299
:102F00001A60E2E7002400F087FD204638BD00BFCC
:102F1000A0050020C8050020F8050020C0050020FD
:102F20003C060020C8060020B4050020B80500209B
:102F300010B5A8B10446104B1B6843B14FF05003C5
:102F400083F31188BFF36F8FBFF34F8FFEE7FFF757
:102F5000DFFE00212046FFF7E7FDFFF76DFF48B9D0
:102F60004FF0E0234FF08052C3F8042DBFF34F8F92
:102F7000BFF36F8F10BD00BFA0050020204B1B6862
:102F80001BB1204B01221A6070471E4B00221A60B1
:102F90001D4B1B68B3FA83F3DBB2C3F11F0303EBD2
:102FA00083018A0019498A5842B94FF0500383F3CC
:102FB0001188BFF36F8FBFF34F8FFEE7134803EB0A
:102FC00083018A00024451684968516003EB830C15
:102FD0004FEA8C0208320244914209D003EB83038A
:102FE0009A000A4B13445B68DA68094B1A60704711
:102FF000486862469100054A0A445060EEE700BF07
:10300000A0050020B4050020C00500203C060020DB
:10301000C806002058B110B50C46094A116818318D
:10302000FFF740F801212046FFF77EFD10BD4FF06D
:10303000500383F31188BFF36F8FBFF34F8FFEE709
:10304000C806002038B5C368DC6824B304F118054D
:103050002846FFF740F8184B1B682BBB251D284658
:10306000FFF739F8E06A01238340144A11680B43E3
:10307000136000EB80002946114B03EB8000FFF743
:1030800006F8E26A0F4B1B68DB6A9A4211D90120ED
:103090000D4B186038BD4FF0500383F31188BFF318
:1030A0006F8FBFF34F8FFEE729460848FEF7EFFF0B
:1030B000E7E70020EEE700BFA0050020C0050020E4
:1030C0003C060020C8060020B4050020F8050020BA
:1030D00038B51C4B1B6843B94FF0500383F311887C
:1030E000BFF36F8FBFF34F8FFEE741F000410160E8
:1030F000C468F4B1FEF7EFFF251D2846FEF7EBFF8D
:10310000E06A01238340104A11680B43136000EB0F
:10311000800029460D4B03EB8000FEF7B8FFE26A02
:103120000B4B1B68DB6A9A4202D90A4B01221A60D8
:1031300038BD4FF0500383F31188BFF36F8FBFF397
:103140004F8FFEE7A0050020C00500203C060020B0
:10315000C8060020B4050020034B1B680360034B26
:103160001B684360704700BFB0050020C405002005
:10317000E0B170B50C46054609B300F02BFC1C4BC2
:1031800019686B68C81A2268B2F1FF3F28D0DFF8CF
:1031900064C0DCF800C02E68664501D08B4224D99B
:1031A000824215D80023236001241AE04FF0500317
:1031B00083F31188BFF36F8FBFF34F8FFEE74FF09C
:1031C000500383F31188BFF36F8FBFF34F8FFEE778
:1031D0005B1A134423602846FFF7BEFF002400E07B
:1031E000002400F019FC204670BD0124F9E700BF5F
:1031F000C4050020B0050020014B01221A60704771
:10320000B4050020054B1B6833B1054B1B680BB19F
:10321000002070470220704701207047BC05002045
:10322000A0050020002848D038B50446C36A254AC6
:103230001268D26A934238D28269002A05DB214A99
:103240001268D26AC2F107028261616903EB8303EB
:103250001D4A02EB8303994205D01A4B1B68DB6AB7
:10326000E362012038BD251D2846FEF734FF38B93A
:10327000E36A01229A4015490B6823EA02030B60B6
:10328000104B1B68D86AE062012404FA00F30F4A6D
:1032900011680B43136000EB800029460A4B03EBD7
:1032A0008000FEF7F4FE2046DCE7426C054B1B680D
:1032B000DB6A9A4203D30020D4E700207047012044
:1032C000D0E700BFC80600203C060020C005002053
:1032D00000284BD038B50446264B1B68834208D0E3
:1032E0004FF0500383F31188BFF36F8FBFF34F8FFD
:1032F000FEE7836C43B94FF0500383F31188BFF3AB
:103300006F8FBFF34F8FFEE7013B8364C16A426C4E
:1033100091422DD00BB1002038BD051D2846FEF787
:10332000DAFE68B9E36A03EB8302920012498A5815
:1033300032B901229A4011490B6823EA02030B605B
:10334000606CE062C0F10703A361012404FA00F39A
:103350000A4A11680B43136000EB80002946064BB4
:1033600003EB8000FEF793FE2046D5E70020704770
:103370000020D1E7C80600203C060020C005002040
:1033800000284FD038B50446836C43B94FF0500342
:1033900083F31188BFF36F8FBFF34F8FFEE7426C4B
:1033A0008A4200D20A46E16A914201D0012B00D044
:1033B00038BD1D4B1B68A3422BD0E262A369002BD2
:1033C00002DBC2F10702A261626901EB8101174BC6
:1033D00003EB81039A42EBD1251D2846FEF77BFEC5
:1033E00038B9E36A01229A4011490B6823EA0203C3
:1033F0000B60E06A012383400D4A11680B431360A0
:1034000000EB80002946094B03EB8000FEF73FFEEE
:10341000CEE74FF0500383F31188BFF36F8FBFF3F4
:103420004F8FFEE7704700BFC80600203C06002013
:10343000C0050020054B1B6823B1044B1A68936C30
:1034400001339364014B1868704700BFC806002021
:10345000842801D00330704700207047EFF30580C7
:10346000003818BF0120704708B5FFF717FC00208F
:1034700008BD2DE9F04387B00E464469C4B18569A3
:10348000B5B14768D0F80080D0F81090B0F90800C6
:10349000FFF7DEFF02950194009033464A4641460D
:1034A0003846FFF78DFB0590059807B0BDE8F0831F
:1034B000446805680769B0F90800FFF7C9FF05AB64
:1034C000019300903346BAB229462046FFF7B3FB7A
:1034D0000128E9D00020E8E708B500B90120FFF78E
:1034E00027FD002008BD08B5416819B10120FFF78C
:1034F00046F808BD0120FFF737F8FAE730B583B08A
:103500000023019310B30C460546FFF7A7FFA0B1B7
:1035100001AA00212846FFF76DF9012818D1019B67
:10352000C3B14FF0E0234FF08052C3F8042DBFF336
:103530004F8FBFF36F8F002006E021462846FFF72C
:1035400086F8012808D1002003B030BD8020FBE7B9
:10355000FF20F9E70020F7E7FF20F5E710B582B07C
:10356000044600230193FFF779FF98B101A9204693
:10357000FFF714F801281AD1019BD3B14FF0E023D3
:103580004FF08052C3F8042DBFF34F8FBFF36F8FFE
:10359000002008E000231A4619462046FEF714FFD3
:1035A000012802D0FF2002B010BD0020FBE7FF2061
:1035B000F9E70020F7E710B582B044687CB1012933
:1035C00003D00024204602B010BD032300932346FD
:1035D000002211460120FEF789FE0446F2E7012988
:1035E000F0D1032200210120FEF7CAFE0446002884
:1035F000E8D000231A461946FEF7E6FEE2E770B56A
:1036000082B00023019318B30C460646FFF726FF4D
:103610000546A0B101AA00213046FFF7EBF80128CA
:1036200018D1019D8DB14FF0E0234FF08052C3F8C7
:10363000042DBFF34F8FBFF36F8F002505E02146A8
:103640003046FFF704F8012806D1284602B070BDC5
:103650008025FAE7FF25F8E7FF25F6E710B582B0E9
:10366000044600230193FFF7F9FE98B101A9204613
:10367000FEF794FF01281AD1019BD3B14FF0E0234C
:103680004FF08052C3F8042DBFF34F8FBFF36F8FFD
:10369000002008E000231A4619462046FEF794FE53
:1036A000012802D0FF2002B010BD0020FBE7FF2060
:1036B000F9E70020F7E70000124A12F0070F1ED0CA
:1036C000D11D21F00701C1F5C83313440A460E4845
:1036D0000260002141601344083B23F007030B48BC
:1036E000036059601960991A51601360084B1960A2
:1036F000084B1960084B4FF000421A6070474FF4B6
:10370000C833E4E7EC060020E4060020E0060020D1
:10371000D8060020DC060020CC060020164B1A46F6
:103720001B688342FBD3516802EB010C844509D02E
:10373000416800EB010C634509D00360904219D049
:10374000106070474068014451601046F0E710B4C3
:103750000A4C2468A3420BD05B681944416013688B
:103760001B680360904200D010605DF8044B704706
:103770000460F7E7704700BFE4060020E006002081
:1037800038B50446FFF7C4FA384B1B68B3B1384B61
:103790001B681C4250D1002C50D004F1080214F0D8
:1037A000070F02D022F007020832002A55D0314B11
:1037B0001B68934253D330490C6804E0FFF77CFF49
:1037C000E5E721461C466368934202D22368002B3A
:1037D000F7D1264B1B68A34243D00D6808352368F8
:1037E0000B6063689B1A102B10D9A01810F0070FFC
:1037F00008D04FF0500383F31188BFF36F8FBFF3EE
:103800004F8FFEE743606260FFF788FF62681949E7
:103810000B689B1A0B60194909688B4201D2174942
:103820000B60134B1B681343636000232360144A2F
:1038300013680133136002E0002500E00025FFF764
:10384000FBFA15F0070F0ED04FF0500383F31188E9
:10385000BFF36F8FBFF34F8FFEE70025EFE7002523
:10386000EDE70025EBE7284638BD00BFE006002065
:10387000CC060020DC060020E4060020D80600204C
:10388000D4060020002834D038B50446A0F108053D
:1038900050F8043C174A1268134208D14FF0500305
:1038A00083F31188BFF36F8FBFF34F8FFEE750F89C
:1038B000081C41B14FF0500383F31188BFF36F8FA1
:1038C000BFF34F8FFEE723EA020340F8043CFFF703
:1038D0001FFA54F8041C084A13680B441360284666
:1038E000FFF71CFF054A136801331360FFF7A4FAC2
:1038F00038BD7047CC060020DC060020D006002032
:1039000082B0002301930D4B1B68B3F1FF3F08D039
:103910004FF0500383F31188BFF36F8FBFF34F8FC6
:10392000FEE74FF0500383F31188BFF36F8FBFF3AF
:103930004F8F019B002BFCD002B070471800002075
:1039400008480068006880F308884FF0000080F3A2
:10395000148862B661B6BFF34F8FBFF36F8F00DF7D
:1039600000BF000008ED00E0DFF80C00016841F442
:10397000700101607047000088ED00E04FF0807337
:1039800040F8043C21F0010140F8081C054B40F8C8
:103990000C3C40F8202C6FF0020340F8243C4438E3
:1039A000704700BF0139000800000000000000005F
:1039B000074B19680868B0E8F04F80F30988BFF337
:1039C0006F8F4FF0000080F311887047AFF30080D5
:1039D000C80600204FF0500383F31188BFF36F8FA8
:1039E000BFF34F8F0B4A136801331360012B00D0D4
:1039F00070474FF0E023D3F8043D13F0FF0FF7D0EA
:103A00004FF0500383F31188BFF36F8FBFF34F8FD5
:103A1000FEE700BF18000020094B1B6843B94FF0B8
:103A2000500383F31188BFF36F8FBFF34F8FFEE70F
:103A3000013B034A13600BB983F31188704700BF41
:103A4000180000200000000000000000000000003E
:103A5000EFF30980BFF36F8F154B1A681EF0100F3C
:103A600008BF20ED108A20E9F04F106009B44FF034
:103A7000500080F31188BFF34F8FBFF36F8FFFF7B4
:103A80007DFA4FF0000080F3118809BC19680868BE
:103A9000B0E8F04F1EF0100F08BFB0EC108A80F3B2
:103AA0000988BFF36F8F7047AFF30080AFF30080DA
:103AB000C806002008B54FF0500383F31188BFF308
:103AC0006F8FBFF34F8FFFF72BF928B14FF0E02333
:103AD0004FF08052C3F8042D002383F3118808BDF2
:103AE0004FF0E022002313619361054B1B680549E9
:103AF000A1FB03139B09013B53610723136170472B
:103B000008000020D34D62104FF0E023D3F8002DC1
:103B10003D4B9A421CD04FF0E023D3F8002D3B4B95
:103B20009A421ED030B583B0394B1A78D2B2019286
:103B3000FF221A701B78DBB28DF803309DF803303A
:103B400003F05003334A1370334B07221A601BE013
:103B50004FF0500383F31188BFF36F8FBFF34F8F84
:103B6000FEE74FF0500383F31188BFF36F8FBFF36D
:103B70004F8FFEE7284A1368013B13609DF803301E
:103B80005B00DBB28DF803309DF8033013F0800F3B
:103B9000F0D1214B1B68032B08D04FF0500383F367
:103BA0001188BFF36F8FBFF34F8FFEE71B021A4AD6
:103BB000136003F4E0631360019BDBB2144A1370DB
:103BC0004FF0E024D4F8203D43F47003C4F8203DC6
:103BD000D4F8203D43F07043C4F8203DFFF780FF48
:103BE00000250E4B1D60FFF7BFFED4F8343F43F0B5
:103BF0004043C4F8343FFFF7A3FEFFF7BFF9FFF7D8
:103C00007FFE284603B030BD71C20F4170C20F4124
:103C100000E400E0F0960120EC960120180000205E
:103C2000EFF305830F2B0ED9114A9A5C114B1B78C9
:103C30009A4208D24FF0500383F31188BFF36F8F7D
:103C4000BFF34F8FFEE74FF0E023D3F80C3D03F4B2
:103C5000E063094A1268934208D94FF0500383F396
:103C60001188BFF36F8FBFF34F8FFEE7704700BF20
:103C7000F0E300E0F0960120EC960120DFF834D06C
:103C8000FDF7C6FE0C480D490D4A002302E0D4584A
:103C9000C4500433C4188C42F9D30A4A0A4C002396
:103CA00001E013600432A242FBD300F02BF8FCF7D2
:103CB0007FFC704700000220000000201C00002054
:103CC000783E00081C000020F4960120FEE7024424
:103CD0000346934200D1704703F8011BF9E710B582
:103CE0006AB10139841810F8012B11F8013F9A428A
:103CF00003D1A04201D0002AF5D1D01A10BD104640
:103D0000FCE7000070B50D4B0D4D5B1B9C100026B1
:103D1000A64209D100F028F80A4D0B4B5B1B9C1002
:103D20000026A64205D170BD55F8043B98470136E0
:103D3000EEE755F8043B98470136F2E7703E00087D
:103D4000703E0008703E0008743E00080A4491422C
:103D500000F1FF3300D1704710B511F8014B03F8A3
:103D6000014F9142F9D110BDF8B500BFF8BC08BCB5
:103D70009E467047F8B500BFF8BC08BC9E46704729
:103D8000543E0008251A0008000000000000000052
:103D9000000400000000000000000000483E000891
:103DA000251B0008000000000000000000020000C9
:103DB00000000000000000003C3E0008B11B0008AD
:103DC00000000000000000000002000000000000F1
:103DD00000000000000000000102030400000000D9
:103DE00000000000010203040607080953544D3384
:103DF000322073656E743A2048656C6C6F204553B1
:103E00005033320D0A00000048656C6C6F000000F2
:103E100053544D33322072656365697665643A2088
:103E2000000000000D0A000053544D333220525858
:103E3000206572726F720D0A000000007370695283
:103E4000785461736B000000737069547854617327
:103E50006B00000064656661756C745461736B007F
:083E600049444C45000000003C
:083E680068C3FF7F01000000A8
:043E7000B501000890
:043E740091010008B0
:103E780001000000100000000024F40048656C6C8C
:0C3E88006F20455350333200AAAAAAAAAA
:0400000508003C7D36
:00000001FF
